:020000040800F2
:100000003025002481030008212F0008092E000854
:10001000192F0008390A0008613B000800000000A1
:100020000000000000000000000000008131000816
:10003000410A000800000000292F0008893100084B
:100040009B0300089B0300089B0300089B03000818
:100050009B0300089B0300089B0300089B03000808
:100060009B0300089B0300089B0300089B030008F8
:100070009B0300089B0300089B0300089B030008E8
:100080009B0300089B0300089B0300089B030008D8
:100090009B0300089B0300089B0300089B030008C8
:1000A0009B0300089B0300089B0300089B030008B8
:1000B0009B0300089B0300089B0300089B030008A8
:1000C0009B0300089B0300089B0300089B03000898
:1000D0009B0300089B0300089B0300089B03000888
:1000E0009B0300089B030008000000009B0300081E
:1000F0009B0300089B0300089B0300089B03000868
:100100009B0300089B0300089B0300089B03000857
:100110009B0300089B0300089B0300089B03000847
:100120009B0300089B0300089B0300089B03000837
:100130009B0300089B0300089B0300089B03000827
:1001400000000000000000000000000000000000AF
:100150009B0300089B0300089B0300089B03000807
:100160009B0300089B0300089B0300089B030008F7
:100170009B0300089B0300089B030008000000008D
:100180009B0300089B0300089B0300089B030008D7
:100190009B0300089B0300089B0300089B030008C7
:1001A0009B0300089B0300089B0300089B030008B7
:1001B0009B0300089B0300089B0300089B030008A7
:1001C0009B0300089B0300089B0300089B03000897
:1001D0009B0300089B0300089B0300089B03000887
:1001E0009B0300089B0300089B0300089B03000877
:1001F0009B0300089B0300089B0300089B03000867
:100200009B0300089B0300089B0300089B03000856
:100210009B0300089B0300089B0300089B03000846
:100220009B0300089B0300089B03000800000000DC
:100230009B0300089B030008000000009B030008CC
:100240009B0300089B0300089B0300089B03000816
:100250009B0300089B0300089B0300089B03000806
:100260009B0300089B0300089B0300089B030008F6
:100270009B0300089B0300089B030008000000008C
:100280009B0300089B0300089B030008000000007C
:10029000000000009B03000800F002F800F060F886
:1002A0000AA090E8000C82448344AAF10107DA45D1
:1002B00001D100F055F8AFF2090EBAE80F0013F0C3
:1002C000010F18BFFB1A43F0010318473C7A0100E5
:1002D0005C7A01000A444FF0000C10F8013B13F067
:1002E000070408BF10F8014B1D1108BF10F8015B8F
:1002F000641E05D010F8016B641E01F8016BF9D182
:1003000013F0080F1EBF10F8014BAD1C0C1B09D1D8
:100310006D1E58BF01F801CBFAD505E014F8016B4A
:1003200001F8016B6D1EF9D59142D6D370470000DC
:100330000023002400250026103A28BF78C1FBD8EE
:10034000520728BF30C148BF0B6070471FB50BF084
:10035000C5F89DE8030000F07FFA1FBD10B510BD81
:1003600000F0E6FA1146FFF7F1FF06F009FB00F096
:1003700004FB03B4FFF7F2FF03BC00F035FB000001
:100380000948804709480047FEE7FEE7FEE7FEE729
:10039000FEE7FEE7FEE7FEE7FEE7FEE70448054965
:1003A000054A064B70470000D13200089902000848
:1003B0003015002430250024301D0024301D002479
:1003C00070B5064600F02CFA056806F10B0020F027
:1003D0000704B4429CBF002070BD2B466A68BAB1C6
:1003E0001068A04210D304F1080188423CBF506855
:1003F000586007D35168101941601168091B0160EA
:1004000058601460101D70BD13465268002AE7D171
:100410002146284600F00CFA0028DED170BD70B5E8
:100420000446051F00F0FCF90068002C14BF446866
:1004300070BD002C18BFAC423CBF20466468F8D3A6
:1004400001680A18AA4218BF456003D12A68054608
:100450001144016028684119A1421CBF6C6070BD45
:100460006168696021680844286070BD53EA020C25
:1004700000F069802DE9F04B4FF00006002B1FBF04
:10048000B3FA83F503FA05F424FA05F65E4012BFC9
:100490001643B2FA82F502FA05F4C5F120051EBF33
:1004A00022FA05FC44EA0C04203556EA044C4FEAD3
:1004B000144418BF641C4FF000084FF0000990422C
:1004C00071EB030C39D3002919BFB1FA81F701FA96
:1004D00007F6B0FA80F700FA07F6C7F120071EBF4B
:1004E00020FA07FC46EA0C062037B6FBF4FCA7EB23
:1004F0000507103F07F01F0BCBF120062CFA06F67C
:100500000CFA0BFB44BFB3460026202FA4BF5E4667
:100510004FF0000B5BEA060C08BF4FF0010B19EB24
:100520000B0948EB0608ABFB027C06FB02CC0BFB7D
:1005300003CCC01B71EB0C01C1E70B4602464146E0
:100540004846BDE8F08B13B5084318BF4FF0FF30A5
:100550000146AFF30080BDE81C40704740EA01034C
:1005600010B59B070FD1042A0DD310C808C9121F5C
:100570009C42F8D020BA19BA884201D9012010BD96
:100580004FF0FF3010BD1AB1D30703D0521C07E063
:10059000002010BD10F8013B11F8014B1B1B07D1C7
:1005A00010F8013B11F8014B1B1B01D1921EF1D138
:1005B000184610BD10B5431C02E010F8011B71B1C4
:1005C0008107FAD14FF0013202C88C1A8C4314EA29
:1005D000C211F9D0C01A0A0603D0C01E10BDC01A3D
:1005E00010BD0A0401D0801E10BD0902FCD0401EBF
:1005F00010BD40EA010370B59B072ED14FF00136C4
:10060000042A2AD308C810C99D1B9D43121F15EA4E
:10061000C61517D0D8B2E1B2401A50EA056110D120
:1006200098B2A1B2401A50EA05410AD123F07F40A6
:1006300024F07F41401A50EA052102D1180EA0EBA8
:10064000146070BDA342DBD018BA21BA884201D928
:10065000012070BD4FF0FF3070BD0AB9002070BDA1
:1006600010F8013B11F8014B63B1A3420AD1521EAD
:1006700008D010F8013B11F8014B1BB1A34201D186
:10068000521EEDD1181B70BD032A40F2308010F0CD
:10069000030C00F0158011F8013BBCF1020F62441D
:1006A00098BF11F801CB00F8013B38BF11F8013BAE
:1006B000A2F1040298BF00F801CB38BF00F8013B5B
:1006C00011F0030300F02580083AC0F0088051F8CB
:1006D000043B083A51F804CBA0E80810F5E7121DD6
:1006E0005CBF51F8043B40F8043BAFF30080D207F5
:1006F00024BF11F8013B11F801CB48BF11F8012BC1
:1007000024BF00F8013B00F801CB48BF00F8012BE3
:10071000704710B5203AC0F00B80B1E81850A0E83F
:100720001850B1E81850A0E81850203ABFF4F5AFBF
:100730005FEA027C24BFB1E81850A0E8185044BF1B
:1007400018C918C0BDE810405FEA827C24BF51F888
:10075000043B40F8043B08BF7047D20728BF31F87C
:10076000023B48BF11F8012B28BF20F8023B48BFCD
:1007700000F8012B704702F0FF0343EA032242EA2C
:10078000024200F002B84FF000020429C0F01280CB
:1007900010F0030C00F01B80CCF1040CBCF1020F34
:1007A00018BF00F8012BA8BF20F8022BA1EB0C0109
:1007B00000F00DB85FEAC17C24BF00F8012B00F8FF
:1007C000012B48BF00F8012B70474FF0000200B525
:1007D000134694469646203922BFA0E80C50A0E864
:1007E0000C50B1F12001BFF4F7AF090728BFA0E812
:1007F0000C5048BF0CC05DF804EB890028BF40F8DE
:10080000042B08BF704748BF20F8022B11F0804F1F
:1008100018BF00F8012B7047704770477047000001
:1008200000487047C80800247047704770477047F9
:1008300038B504460A4600206946AFF30080002818
:1008400008BF38BD02460099204600F04FF801204D
:1008500038BD012000F064B8F8B5AFF3008005465C
:1008600000200C46102000BF0646A819A0420DD952
:10087000324669460020AFF30080070008BF00F051
:100880004FF80098A04218BF0546C419FFF7C8FFEB
:1008900005600746F01D20F007004619284600F0C5
:1008A0000AF8B44208BFF8BDA21B31463868BDE85B
:1008B000F84000F01BB800210160C0E9011070474A
:1008C0001020704710B500F00DF8006810BD10B58D
:1008D000044600F007F8046010BD000000487047AF
:1008E000C008002400487047C00800240346406840
:1008F0008C46002818BF88423CBF03464068F8D3A6
:1009000018681844884207D00CF1030020F0070053
:10091000001D411A521A0146081D0A60FFF77FBDEB
:1009200010B500F039F8BDE8104000F02FB870475E
:100930007546FFF7D3FFAE4605006946534620F0E3
:100940000700854618B020B5FFF728FDBDE8204018
:100950004FF000064FF000074FF000084FF0000B7B
:10096000AC46ACE8C009ACE8C009ACE8C009ACE8EA
:10097000C00921F007018D46704710B50446AFF35A
:1009800000802046BDE81040FFF7F3BC002801D0EE
:1009900000F02AB87047000010B5012805D00021EA
:1009A00003A000F027F8012010BD09A1F8E700001E
:1009B00053494752544D454D3A204F7574206F6648
:1009C0002068656170206D656D6F727900000000B0
:1009D0003A2048656170206D656D6F727920636F94
:1009E000727275707465640001491820ABBEFEE731
:1009F0002600020070B505460C460A2000E06D1C7A
:100A000000F011F835B128780028F8D102E0641C14
:100A100000F009F814B120780028F8D1BDE8704042
:100A20000A20AFF3008008B569468DF80000032066
:100A3000ABBE08BD00000000FEE7000000000000A3
:100A40007047000000000000EFF3108072B600BF96
:100A5000FEE7000000000000B0B50023C7F6FF73FA
:100A6000194205D04FF0010C4FF0010E07E000BF16
:100A700011F47F4F26D04FF0010E4FF0000C0123F0
:100A80004FEAF204032C06D8DFE804F01202080E45
:100A9000BCF1000F0CD00120B0BD00BFBEF1000FB3
:100AA00006D00120B0BD00BF13B10120B0BD00BF12
:100AB00000684161816821F01801114381600020C4
:100AC000B0BD00BF0B0607D44B06CBD04FF0000CD7
:100AD0004FF0000E0023D3E701234FF0000C4FF03E
:100AE000000ECDE70000000010B5C8B10446407FFD
:100AF00020B900202077204600F036F802206077E9
:100B0000207978B1D4E902122046FFF7A5FF00282A
:100B10001CBF012010BD607988B1206911E000BFC1
:100B2000012010BD206841F6B751C0F2C1414161BA
:100B3000816821F01801816060790028EDD14FF0C3
:100B4000FF302168D4E905230861886820F060003F
:100B500010438860886820F0800018438860012076
:100B60006077002010BD000081B044F2E0410068D1
:100B7000C5F6020101F5E462904201D001B0704770
:100B8000086840F400200860086800F40020009025
:100B9000009801B070470000B0B5044600F018F9A5
:100BA00040F270010546C2F20041621C097818BF8C
:100BB0000C4400BF00F00CF9401BA042FAD3B0BDBA
:100BC0002DE9F04F85B08E4642F20042C5F6020292
:100BD0000A2102909042DEF8005008BF0921002D42
:100BE000009100F0DD800298002400F12642009878
:100BF00002F1FF7201274FEAB2230026092B4FF0C2
:100C0000000838BF1846CDF80CE000900EE000BF99
:100C1000DEF8005008F1010835FA07F006F1020687
:100C200007F1010704F1040400F0BA80A7F1010AFA
:100C3000012000FA0AF315EA0309E9D0DEF804B04E
:100C40000BF003056A1E012A22D802984FEA4801D8
:100C5000D0F808C00191032101FA06F203992CEAA9
:100C6000020CD1F80CE00EFA06F1DDF80CE041EAD6
:100C70000C01816041686FEA020CCBF300129943CA
:100C80000346019802FA0AF2114359600CE000BFD2
:100C90000320032D00FA06F0029B6FEA000C304699
:100CA00002D13046032526E0D968DEF8082001EAA3
:100CB0000C018240022D41EA0201D9601BD102469B
:100CC0006FF0030000EA5A010F20194404F01C03DE
:100CD00000FA03F51046D1F820E0039A2EEA050544
:100CE000DDF80CE012699A40029B2A430A62DEF8A2
:100CF00004B00BF00305196805FA00F001EA0C01D5
:100D00001BF4403F40EA010018603FF481AF44F219
:100D1000F44140F20845C5F60201C5F600050F236F
:100D2000086840F002000860086800F002000490C3
:100D30002AF00300049904F00C0142598B409A43B5
:100D4000009B03FA01F1114341514FF0B04528686F
:100D5000DEF8041040EA0902CB0258BF20EA09027B
:100D60008B022A6040F20405C5F60005286840EAB7
:100D7000090258BF20EA09028B032A60D5F88000D7
:100D800040EA090258BF20EA0902C903C5F88020D9
:100D9000E86F40EA090258BF20EA0902EA6737E72C
:100DA00005B0BDE8F08F000041F20000C5F600403C
:100DB00000686FF31F3070470020C0F20B107047BF
:100DC00041F20000C5F600400068000C70470000CA
:100DD00041F22C50C2F20040006870470000000051
:100DE00040F2700041F22C51C2F20040C2F20041C8
:100DF00000780A6810440860704700000000000096
:100E000080B5032000F098F801F05AFA44F2184136
:100E10004BF23663C5F60201C0F600030A680968A2
:100E200001F00F01C2F30322595C9A5C01F01F012B
:100E300002F01F02D04040F27C02C2F2004220FACF
:100E400001F1116040F27801C2F2004108600F2008
:100E500000F00AF800281CBF012080BD00F02CF82B
:100E6000002080BD0000000070B540F27006C2F2A4
:100E700000463178E1B1044640F27800C2F2004009
:100E80004FF47A72B2FBF1F10068B0FBF1F001F0BF
:100E90005FFD0F2C4FF0010508D838B94FF0FF3037
:100EA00000222146002500F017F87460284670BD26
:100EB000012070BD0000000081B044F2F440C5F68E
:100EC0000200016841F002010160006800F00200C8
:100ED0000090009801B07047B0B54EF60C5C00F081
:100EE0000F05CEF2000C043D6544DCF800304FF0F5
:100EF000FF3CC3F3022E8EF00703042B28BF04230C
:100F0000BEF1030438BF00240CFA03F3B0F1FF3F35
:100F100021EA030105F10C0300F160450CFA04F02D
:100F2000C8BF05F56443A14022EA00000843000160
:100F30001870B0BD000000004EF60C514FF6FF03D4
:100F4000CEF200010A681A4060F30A2242F0806083
:100F500040F0FD7008607047B0B544F60C05C5F66A
:100F6000020529684907296806D401F00701081A13
:100F700018BF0120B0BD00BF21F007010843286061
:100F8000FFF726FF044600BF55F8080C800407D47D
:100F9000FFF71EFF001BB0F57A7FF5D90120B0BD29
:100FA0000020B0BD0000000080B501F001F944F25E
:100FB00020414BF23662C5F60201C0F60002096814
:100FC000C1F30211515C01F01F01C84080BD000057
:100FD00080B544F2384EC5F6020E5EF8103C5EF85D
:100FE000101CC1F3053C5EF80C1CBCF1000FDEF8D0
:100FF000042023D0C1F3001103F00303C2F3CC0299
:10100000022B02FB01F100EE101AB8EE400A2BD0C1
:10101000012B19D0C3B95EF8381C89066ED4DEF8EE
:1010200000109FED492A6FF35F2101EE101AB8EE10
:10103000411AA0EE021A9FED470A23E000218160C9
:10104000C0E9001180BD00BFDEF800109FED3E2A10
:101050006FF35F2101EE101AB8EE411AA0EE021AEA
:101060009FED3B0A0EE000BFDEF800109FED362A30
:101070006FF35F2101EE101AB8EE411AA0EE021ACA
:101080009FED320AA1EE000A01EE10CAB8EE411A35
:10109000DEF8001080EE010AB7EE002AC1F3462107
:1010A00001EE101AB8EE411A31EE021A80EE011A62
:1010B000BCEEC11A80ED001ADEF80010C1F3064143
:1010C00001EE101AB8EE411A31EE021A80EE011A42
:1010D000BCEEC11A80ED011ADEF80010C1F3066102
:1010E00001EE101AB8EE411A31EE021A80EE010A32
:1010F000BCEEC00A10EE101A816080BDB7EE001A77
:101100005EF8381CDEF800209FED0F2A6FF35F2297
:10111000C1F3C101A0EE021A00EE102A49F200024A
:10112000C0F2D03222FA01F1B8EE400A02EE101AF3
:10113000B8EE422A31EE000A01EE10CAB8EE411AAA
:1011400020EE020AA4E700BF0000003920BCBE4B1D
:101150000024744A0024744C80B544F2404EC5F615
:10116000020E5EF8183C5EF8181CC1F3055C5EF8D0
:10117000141CBCF1000FDEF8042023D0C1F30021C1
:1011800003F00303C2F3CC02022B02FB01F100EED9
:10119000101AB8EE400A2BD0012B19D0C3B95EF853
:1011A000401C89066ED4DEF800109FED492A6FF3CB
:1011B0005F2101EE101AB8EE411AA0EE021A9FED5F
:1011C000470A23E000218160C0E9001180BD00BF13
:1011D000DEF800109FED3E2A6FF35F2101EE101A3A
:1011E000B8EE411AA0EE021A9FED3B0A0EE000BFD6
:1011F000DEF800109FED362A6FF35F2101EE101A22
:10120000B8EE411AA0EE021A9FED320AA1EE000AD2
:1012100001EE10CAB8EE411ADEF8001080EE010AA5
:10122000B7EE002AC1F3462101EE101AB8EE411ABA
:1012300031EE021A80EE011ABCEEC11A80ED001ADE
:10124000DEF80010C1F3064101EE101AB8EE411AA3
:1012500031EE021A80EE011ABCEEC11A80ED011ABD
:10126000DEF80010C1F3066101EE101AB8EE411A63
:1012700031EE021A80EE010ABCEEC00A10EE101A1E
:10128000816080BDB7EE001A5EF8401CDEF80020D9
:101290009FED0F2A6FF35F22C1F3C101A0EE021A86
:1012A00000EE102A49F20002C0F2D03222FA01F117
:1012B000B8EE400A02EE101AB8EE422A31EE000AE9
:1012C00001EE10CAB8EE411A20EE020AA4E700BFF0
:1012D0000000003920BCBE4B0024744A0024744C2A
:1012E0002DE9F0470446C07844F22C480007C5F6C3
:1012F000020845D5606E4FEA305103290CD8DFE86B
:1013000001F003112F3800BFD8F8001041F400316C
:10131000C8F800102DE000BF01266078C0070AD091
:1013200032E000BF201D022101F002FE0646F8B1A6
:101330006078C00728D135463746607880073BD4AF
:101340003E466078400750D4B1466078000700F10F
:1013500067804F46E078800740F15F817AE000BF08
:1013600004F12400022101F077FE06460028DFD1B7
:10137000606ED8F8241021F440110843C8F8240006
:1013800000266078C007D6D0606D042800F2A680E1
:101390003546DFE800F003ABB10A0A00D8F80000D8
:1013A000354640F40030C8F80000002D2F4600F00C
:1013B000AD8060788007C3D5A06D4FEAB0100428D7
:1013C00000F2B480DFE800F004BAC00A0A0000BFEF
:1013D000D8F8000040F40030C8F80000002D2E4678
:1013E00000F0BC8060784007AED5D4F8A4004FEA86
:1013F0007050042800F2C280DFE800F004C8CE0A72
:101400000A0000BFD8F8000040F40030C8F800001F
:10141000002DA94600F0CA80607800077FF599AFDB
:10142000D4F8A8004FEA3060042800F2CF80DFE84B
:1014300000F003D5DB090900D8F8000040F40030C3
:10144000C8F80000002D2F4600F0D880E078800713
:1014500040F1E380A06C4FEA301003281AD8DFE88F
:1014600000F003212B0300BF2E466DB36078C00649
:1014700000F1D88037466078800600F1ED803E4666
:101480006078400600F1FC8037466078000640F145
:10149000BA8109E1012501266078C00600F1C28009
:1014A000E8E700BFD8F8000040F40030C8F80000BA
:1014B000002D2E46DAD107E0201D022101F038FD73
:1014C0000546002D2E46D1D1D8F82000A16C20F081
:1014D000300000250843C8F820009EE001250127C0
:1014E000607880073FF568AF2AE700BF201D002124
:1014F00001F01EFD05E000BF04F12400002101F011
:10150000ABFD0546002D2F467FF453AFD8F82400DD
:10151000616D20F0070000250843C8F82400374615
:10152000607880077FF50CAF46E700BF01250126F4
:10153000607840073FF559AF06E700BF201D002146
:1015400001F0F6FC05E000BF04F12400002101F0E9
:1015500083FD0546002D2E467FF444AFD8F82400C5
:10156000A16D20F4E07000250843C8F824003E4631
:10157000607840077FF5E8AE37E700BF01254FF000
:101580000109607800073FF54BAFE2E6201D00211E
:1015900001F0CEFC05E000BF04F12400002101F0C1
:1015A0005BFD0546002DA9467FF436AFD8F82C0028
:1015B000D4F8A41020F4600000250843C8F82C00DB
:1015C000B146607800077FF5C4AE29E70125012701
:1015D000E07880073FF53EAF1FE000BF201D0021EF
:1015E00001F0A6FC05E000BF04F12400002101F099
:1015F00033FD0546002D2F467FF428AFD8F82C0088
:10160000D4F8A81020F0E06000250843C8F82C00AA
:101610004F46E07880073FF51DAF3E466078C00634
:101620007FF528AFE06D4FEA3030042800F26C807F
:10163000DFE800F00472780A0A0000BFD8F8000062
:1016400040F40030C8F80000002D2F4600F07480F0
:10165000607880067FF513AF206E4FEA3040052892
:1016600000F27A80DFE800F004808A04040400BFFE
:10167000002D2E4600F08C80607840067FF504AF88
:10168000D4F8AC004FEA3070052800F29180DFE812
:1016900000F00397A1030303002D2F4600F0A48060
:1016A0006078000640F1AF80E06E58B1B0F1005FA5
:1016B00010D0B0F1805F1FD1D8F8000040F40030A6
:1016C000C8F800002E466DB1E078C00700F0CF806A
:1016D0009DE000BF201D012101F02AFC0546002DE0
:1016E0002E46F1D1D8F82400E16E20F040500025BC
:1016F0000843C8F8240086E001250126E078C007E9
:1017000040F08580B3E000BF0125012760788006A6
:101710003FF5A2AFB3E600BF201D002101F008FC99
:1017200005E000BF04F12400002101F095FC05460E
:10173000002D2F467FF48CAFD8F82400E16D20F403
:10174000E04000250843C8F824003746607880064A
:101750007FF595AE80E700BF012501266078400641
:101760003FF58EAF90E600BF201D012101F0E0FBA8
:101770000546002D2E467FF47FAF09E004F12400DA
:10178000012101F069FC0546002D2E467FF474AF5F
:10179000D8F82400216E20F4E02000250843C8F882
:1017A00024003E46607840067FF56EAE68E700BFD5
:1017B00001250127607800063FF576AF23E000BFE2
:1017C000201D012101F0B4FB0546002D2F467FF4BA
:1017D00067AF09E004F12400012101F03DFC05465A
:1017E000002D2F467FF45CAFD8F82C00D4F8AC1055
:1017F00020F0E04000250843C8F82C003746607808
:1018000000063FF551AF3E46E078C0072FD0606C30
:10181000032809D8DFE800F002101A02A946EDB14A
:10182000A07840062AD426E001254FF00109A078CF
:10183000400620D522E000BFD8F8000040F4003078
:10184000C8F80000002DA946EAD107E0201D0221BA
:1018500001F06EFB0546002DA946E1D1D8F8200025
:10186000616C20F0030000250843C8F82000B14651
:10187000A078400602D44F4619E000BFD8F8D40340
:1018800040F48070C8F8D403FFF7A2FA064600BF00
:10189000D8F8D403C00507D4FFF79AFA801B642850
:1018A000F6D90325032702E0002D2F4664D02078C7
:1018B000C00700F0B680A06F4FEAF000052800F2E4
:1018C0008D80DFE800F003919B030303002D2E467B
:1018D00000F09E802078800700F1A88037462078AD
:1018E000400700F1B7803E462078800600F1C880AE
:1018F00037462078400600F1DB803E46207800061F
:1019000000F1EE8037462068010740F10181D4F8EC
:101910008000B0F5805F09D104F12400022101F0BC
:101920009BFB002818BF0127D4F88000D8F82810A6
:1019300021F440510843C8F828002068C10640F14E
:10194000EA80D4F89400B0F5807F09D104F1240036
:10195000022101F081FB002818BF0127D4F8940070
:10196000D8F82C1021F440710843C8F82C002068E6
:10197000000340F1F780D0E0D8F84410D4F8B0006C
:10198000414011F4407F11D0D8F84410D8F84420D9
:1019900042F48032C8F84420D8F8442021F4407141
:1019A00022F48032C8F84420C8F84410B0F5807F93
:1019B00040F0AC82FFF70CFA064641F2883A032564
:1019C000032700BFD8F84400800700F19D82FFF78D
:1019D000FFF9801B5045F5D969E700BF01250126B5
:1019E0002078800722D479E7201D012101F0A0FA98
:1019F0000546002D2E467FF46DAF09E004F124006A
:101A0000012101F029FB0546002D2E467FF462AF2F
:101A1000D8F82800A16F20F0380000250843C8F846
:101A200028003E46207880077FF558AF606F052874
:101A300000F28E81DFE810F0060094019E0106009E
:101A400006000600002D2F4600F09E8120784007FA
:101A50007FF549AFD4F89000052800F2A581DFE8B2
:101A600010F00700AB01B50107000700070000BF39
:101A7000002D2E4600F0B481207880067FF538AF27
:101A8000D4F88C004FEA3070052800F2B981DFE805
:101A900010F00700BF01C90107000700070000BFE1
:101AA000002D2F4600F0C881207840067FF525AF35
:101AB000D4F898004FEAB020052800F2CD81DFE885
:101AC00010F00700D301DD0107000700070000BF89
:101AD000002D2E4600F0DC81207800067FF512AF45
:101AE000D4F89C004FEA7030052800F2E181DFE86D
:101AF00010F00700E701F10107000700070000BF31
:101B0000002D2F4600F0F081206801073FF5FFAE61
:101B1000C1063FF516AF000324D5D4F8A000B0F5F8
:101B2000003F0FD0B0F5803F06D0B8BB201D00218C
:101B300001F0FEF905E000BF04F12400022101F0EC
:101B40008BFA05462E461DB1A07840073FD50DE023
:101B5000D8F82C00D4F8A01020F440300025084319
:101B6000C8F82C003E46A078400730D5D4F8840051
:101B7000B0F5401F0BD0B0F5001F15D0B0F5801F99
:101B800070D1D8F8000040F40030C8F800002F46AB
:101B90009DB1A078C0071ED169E000BF01260125D4
:101BA000A0784007E2D412E004F12400012101F002
:101BB00053FA0546002D2F46EBD1D8F82800D4F86B
:101BC000841020F4401000250843C8F82800374648
:101BD000A078C0074BD0E06CB0F5803F2AD0D8BBCE
:101BE000D8F8000040F40030C8F800002E464DB38D
:101BF000206881003FD4810348D4C1025DD4C10074
:101C000065D481026FD4410078D4B0F1FF3F40F336
:101C10008680000208D5D8F82800D4F8881020F46F
:101C200040000843C8F82800002E18BF012630469F
:101C3000BDE8F087201D022101F07AF90546002D4C
:101C40002E46D5D1D8F82000E16C20F48030002554
:101C50000843C8F820000AE0012601252068810019
:101C6000C9D508E001270125A078C007B3D13E46B9
:101C700020688100BFD504F12400022101F0ECF9B5
:101C8000002818BF012620688103B6D5E16F6FF0E8
:101C9000010202EB3122022A0AD34FEA31223AB181
:101CA000012A07D1D8F8002042F40032C8F80020F9
:101CB000002D41D00126C102A1D5D8F82410226FF1
:101CC00021F000411143C8F82410C10099D558F8FB
:101CD0001C1CD4F8B42021F48041114348F81C1C8A
:101CE00081027FF590AFD8F82410A26E21F08071A8
:101CF0001143C8F8241041007FF587AF58F81C1C29
:101D000021F4004148F81C1CD4F8B81058F81C2CD9
:101D1000114348F81C1CB0F1FF3F3FF77AAFD8F8E9
:101D20002010226D21F040511143C8F8201000020C
:101D30007FF57AAF6FE700BFD8F8282022F4407211
:101D40001143C8F82810C1027FF559AFB5E700BFAD
:101D500001250127207840073FF57CAEC3E500BF91
:101D6000201D012101F0E4F80546002D2F467FF4E7
:101D70006DAE09E004F12400012101F06DF9054682
:101D8000002D2F467FF462AED8F82800616F20F056
:101D9000070000250843C8F8280037462078400788
:101DA0007FF5A1AD56E600BF01260125207880060B
:101DB0003FF566AE9CE500BF201D012101F0B8F89B
:101DC0000546002D2E467FF457AE09E004F12400AD
:101DD000012101F041F90546002D2E467FF44CAE5D
:101DE000D8F82C00D4F8901020F007000025084304
:101DF000C8F82C003E46207880067FF579AD3FE696
:101E000001270125207840063FF552AE75E500BF59
:101E1000201D002101F08CF80546002D2F467FF48F
:101E200043AE09E004F12400022101F015F9054652
:101E3000002D2F467FF438AED8F82800D4F88C1047
:101E400020F0E04000250843C8F8280037462078F5
:101E500040067FF552AD2BE60126012520780006CD
:101E60003FF53EAE4EE500BF201D002101F060F8B9
:101E70000546002D2E467FF42FAE09E004F1240024
:101E8000022101F0E9F80546002D2E467FF424AE2C
:101E9000D8F82C00D4F8981020F4E050002508431E
:101EA000C8F82C003E46207800067FF52BAD17E6DB
:101EB00001270125206801077FF52AAE27E500BF2D
:101EC000201D002101F034F80546002D2F467FF437
:101ED0001BAE09E004F12400022101F0BDF8054623
:101EE000002D2F467FF410AED8F82C00D4F89C10AB
:101EF00020F4604000250843C8F82C0037462068CD
:101F000001077FF505AE02E5D4F8B0004FF6CF73B8
:101F100058F81C2CC0F2FF0300F4407122F47C52EC
:101F200003EA10136FF31F30B1F5407F08BF1A4367
:101F3000002548F81C2CD8F844100843C8F8440081
:101F4000FFF799BC000000002DE9F04381B00028A4
:101F500000F02A8142F200080446C5F200288946B2
:101F6000D8F8000000F00F0088420ED2D8F8000028
:101F700020F00F0040EA0900C8F80000D8F800007F
:101F800000F00F00484540F00F81206844F21847E8
:101F90004107C5F602070AD521693A6802F07002C6
:101FA000914204D93A6822F0700211433960010766
:101FB0000AD561697A6802F07002914204D97A68A0
:101FC00022F0700211437960C1060AD5A1697A68CE
:101FD00002F4E062914204D97A6822F4E06211438B
:101FE000796081060AD5E169BA6802F0700291420F
:101FF00004D9BA6822F070021143B96010F00201EE
:102000000AD0E2683B6803F00F039A4204D93B68A8
:1020100023F00F031A433A60C20746D0386820F411
:102020007061D4E90102012841EA0201396009D056
:1020300003280DD0022811D157F8181C890340F14C
:10204000B38010E057F8181CC90540F1AD800AE0D4
:1020500057F8181C890140F1A78004E057F8181CB4
:10206000490740F1A18057F8081C21F007010843F7
:1020700047F8080CFEF7ACFE064641F2883500BF73
:1020800057F8080C616800F03800B0EBC10F09D0B8
:10209000FEF79EFE801BA842F2D9032001B0BDE8E6
:1020A000F08300BF206800F0020151B1E1683A6896
:1020B00002F00F02914204D23A6822F00F0211435B
:1020C0003960D8F8001001F00F0149450DD9D8F852
:1020D000001021F00F0141EA0901C8F80010D8F8FA
:1020E000001001F00F0149455ED141070AD5216971
:1020F0003A6802F07002914204D23A6822F070020B
:102100001143396001070AD561697A6802F07002EB
:10211000914204D27A6822F0700211437960C106BC
:102120000AD5A1697A6802F4E062914204D27A6821
:1021300022F4E0621143796080060AD5E069B9684B
:1021400001F07001884204D2B96821F0700108439F
:10215000B86000F0B5F839684BF236633A68C0F6FB
:102160000003C1F3032102F00F02595C9A5C01F0F5
:102170001F0120FA01F102F01F0040F27C0221FA57
:1021800000F0C2F20042106040F2740040F27802A7
:10219000C2F20040C2F200420068116001B0BDE826
:1021A000F043FEF761BE00BF012001B0BDE8F0833F
:1021B00080B500F085F844F218414BF23663C5F65D
:1021C0000201C0F600030A68096801F00F01C2F3BA
:1021D0000322595C9A5C02F01F0220FA02F201F01D
:1021E0001F0040F27C0122FA00F0C2F200410860B8
:1021F00040F27801C2F200410A6080BD0000000098
:1022000080B500F05DF844F2184C4BF23661C5F62B
:10221000020CC0F60001DCF80020DCF8003003F00E
:102220000F03C2F30322CB5C8A5C02F01F02D04092
:1022300003F01F0240F27C0320FA02F2C2F20043D4
:102240001A6040F27803C2F200431860DCF8040020
:10225000C0F30210085C00F01F0022FA00F080BDFD
:1022600080B500F02DF844F2184C4BF23661C5F6FB
:10227000020CC0F60001DCF80020DCF8003003F0AE
:102280000F03C2F30322CB5C8A5C02F01F02D04032
:1022900003F01F0240F27C0320FA02F2C2F2004374
:1022A0001A6040F27803C2F200431860DCF80400C0
:1022B000C0F30220085C00F01F0022FA00F080BD8D
:1022C00044F23041C5F6020151F8200CC0F3C200BF
:1022D000032813D002283FD0002843D151F8300CF6
:1022E000800649F20000C0F2D03058BF704751F864
:1022F000301CC1F3C101C840704700BF51F8082C21
:1023000051F8080CC0F3051C51F8040CBCF1000F87
:102310004B682DD0C3F3CC0300F00100584302F00A
:102320000302022A00EE100AB8EE400A30D0012A59
:1023300020D0FAB951F8300C80064DD408689FEDD2
:10234000382A6FF35F2001EE100AB8EE411AA0EEB2
:10235000021A9FED360A28E047F64000C0F27D10D1
:10236000704700BF40F60010C0F23D00704700BF4C
:102370000020704708689FED2A2A6FF35F2001EE66
:10238000100AB8EE411AA0EE021A9FED270A0CE0DF
:1023900008689FED232A6FF35F2001EE100AB8EE64
:1023A000411AA0EE021A9FED1F0AA1EE000A01EEEB
:1023B00010CAB8EE411A086880EE010AC0F3462040
:1023C000013001EE100AB8EE411A80EE010ABCEEAF
:1023D000C00A10EE100A7047B7EE001A51F8300C20
:1023E0000A689FED0F2A6FF35F22C0F3C100A0EED1
:1023F000021A00EE102A49F20002C0F2D03222FA8C
:1024000000F0B8EE400A02EE100AB8EE422A31EEB1
:10241000000A01EE10CAB8EE411A20EE020ACAE71D
:102420000000003920BCBE4B0024744A0024744CC8
:10243000F0B581B0002800F05B810446007844F2DA
:102440000046C007C5F6020612D0306900F0380118
:10245000B06A102905D018292ED100F003000228F7
:102460002AD13068800303D56068002800F04081DD
:102470002078800740F1A980306910F03801B06AF7
:102480002CD0182908BF5FEA807027D0E068316837
:1024900000284FD021F0190108433060FEF798FC66
:1024A000054600BF3068400734D4FEF791FC401B5E
:1024B0000228F7D95BE100BF606800284CD0B0F576
:1024C000A02F61D0B0F5803F62D0306820F480301A
:1024D0003060306820F480205DE000BF3068400745
:1024E000E06802D5002800F00381316821F019016D
:1024F00008433060FEF76CFC054600BF30684007BB
:1025000008D4FEF765FC401B02284FF00300F5D904
:1025100019E200BFFEF754FC41F20301884249D89A
:1025200020697168402821F47C314BD141F400309E
:102530004AE000BF21F001003060FEF749FC05468B
:102540003068400741D5FEF743FC401B02284FF09E
:102550000300F5D9F7E100BF306820F48030306027
:10256000306820F480203060FEF732FC054600BF62
:10257000306880037FF57CAFFEF72AFC401B64289F
:102580004FF00300F4D9DEE1306840F48020306081
:10259000306840F480303060FEF71AFC054600BF1A
:1025A000306880033FF564AFFEF712FC401B6428DF
:1025B000F6D9DCE07068216920F0FE4040EA016055
:1025C00002E000BF41EA003070602078C00654D5B8
:1025D000306900F03801B06A082905D0182919D1EE
:1025E00000F00300012815D13068C00503D5E0696B
:1025F000802840F07D80FEF7E3FB41F20301884232
:102600001ED8206A7168202821F0F84132D141F0AB
:10261000804031E0E0690028306819D040F0800047
:102620003060FEF7D5FB05463068C005E3D4FEF701
:10263000CFFB401B02284FF00300F5D983E100BF18
:10264000F068216A20F07C5040EA0160F06014E0FC
:1026500020F080003060FEF7BBFB05463068C00507
:102660000BD5FEF7B5FB401B02284FF00300F5D950
:1026700069E100BF41EA80607060207800073BD4C8
:10268000207880064CD4207840075DD4656A65B315
:10269000306900F03800182840F0A080012DB16AA0
:1026A000306B25D001F00302A36A9A4220D1C1F316
:1026B0000511E26A91421BD10146226B6FF35F2143
:1026C000013A914214D1C0F34622616B01398A422A
:1026D0000ED1C0F30642A16B01398A4208D1C0F382
:1026E0000660E16B0139884202D1002001B0F0BDE3
:1026F000012001B0F0BD00BF60690028706F39D0C3
:1027000040F001007067FEF763FB0546706F8007BD
:10271000B6D4FEF75DFB401B0228F7D927E000BFC7
:10272000A0690028306847D040F480503060FEF740
:102730004FFB054630688004A5D4FEF749FB401BDB
:102740000228F7D913E000BFD6F8000440F48070E7
:10275000C6F80004FEF73CFB054600BFD6F80004AF
:10276000C00519D4FEF734FB401B6428F6D90320BA
:1027700001B0F0BD20F001007067FEF729FB0546AF
:10278000706F80077FF57CAFFEF722FB401B0228AD
:102790004FF00300F4D9D6E0A068002840D0052807
:1027A00058D001285AD0306F20F001003067306FC8
:1027B00020F0040055E000BF20F480503060FEF7A8
:1027C00007FB0546306880047FF55DAFFEF700FB30
:1027D000401B02284FF00300F4D9B4E0306820F029
:1027E00080703060FEF7F4FA022D05460CD100BF70
:1027F0003068800148D5FEF7EBFA401B02284FF005
:102800000300F5D99FE000BF306880017FF56DAF10
:10281000FEF7DEFA401B02284FF00300F4D992E0E5
:10282000306F20F001003067306F20F00400306717
:10283000FEF7CEFA054641F28837306F80077FF504
:1028400025AFFEF7C5FA401BB8424FF00300F4D99C
:1028500079E000BF306F40F004003067306F40F027
:1028600001003067FEF7B4FA054641F2883700BF31
:10287000306F80073FF50AAFFEF7AAFA401BB84257
:102880004FF00300F4D95EE004F12807B06A40F28B
:10289000F33188438ECF0843591E40EA02104FF4AB
:1028A0007E426FF35F21B06202EB47204FF4FE02DD
:1028B00080B2E36B0844A16B02EB01414FF0FE4292
:1028C00001F4FE0102EB0362084402F0FE410844F9
:1028D0003063F06A4FF6F87120F00100F062706B1F
:1028E000A26C884340EAC2007063F06A216C20F059
:1028F0000C000843F062F06A616C20F002000843AB
:10290000F062F06A40F48030F062F06A40F4003027
:10291000F062F06A40F48020F062F06A40F001005A
:10292000F062306840F080703060FEF751FA044683
:10293000306880013FF5D9AEFEF74AFA001B022845
:102940004FF00300F4D901B0F0BD0000000000001A
:10295000411E0020B0EB116F02D00120704700BF74
:102960004EF21002F023CEF2000251604EF62351D7
:10297000CEF200010B7007219060116070470000DB
:1029800090F88010012901D1022070472421C0F85D
:10299000841002681368116823F0005321F00101CC
:1029A00011600021416613602022C0F8842080F865
:1029B000801008467047000070B590F88020012A0A
:1029C00002D1022070BD00BF2422C0F8842002681A
:1029D000D0F864E0BEF1000FD2F800C0136823F015
:1029E00001031360936823F0606341EA030191607F
:1029F0001AD091684BF6301E9368C0F6000E5B0F3C
:102A00004BF63815C1F34266C0F600051EF80340C8
:102A1000E95C2301B3FBF1F11EF80630AE5D1B014A
:102A2000B3FBF6F302E000BF01210123A0F86A1016
:102A30002021A0F86830C2F800C0C0F8841000213E
:102A400080F88010084670BD70B590F88020012A8B
:102A500002D1022070BD00BF2422C0F88420026889
:102A6000D0F864E0BEF1000FD2F800C0136823F084
:102A700001031360936823F0604341EA030191600E
:102A80001AD091684BF6301E9368C0F6000E5B0FAB
:102A90004BF63815C1F34266C0F600051EF8034038
:102AA000E95C2301B3FBF1F11EF80630AE5D1B01BA
:102AB000B3FBF6F302E000BF01210123A0F86A1086
:102AC0002021A0F86830C2F800C0C0F884100021AE
:102AD00080F88010084670BDB0B582B0B0B1044631
:102AE000D0F8840028B9002084F88000204600F047
:102AF00057F82420C4F884002068016821F00101FF
:102B00000160204600F0BCFC012803D1012002B086
:102B1000B0BD00BFA06A10B1204600F041FC2068A3
:102B2000416821F490414160816821F02A0181606F
:102B3000016841F0010101600020C4F88C00FEF73B
:102B400047F9216805460A6812070BD54FF40011B2
:102B500000226FF07E40009020462B4600F0ECFEF5
:102B600070B92168086840070ED54FF48001002233
:102B70006FF07E40009020462B4600F0DDFE18B13D
:102B8000032002B0B0BD00BF2020C4F88400C4F808
:102B900088000020E06684F8800002B0B0BD00002C
:102BA00010B5B4B069460446081DB821FDF70DFE06
:102BB00041F200012068C4F20101884202D034B021
:102BC00010BD00BF012000906846FEF789FB08B1E8
:102BD000FDF73AFF44F2E040C5F60200016941F01A
:102BE00010010161016901F010012F912F99016815
:102BF00041F00101016000682FA900F001002F9051
:102C00002F984FF4C0602F90022030900020CDE923
:102C10003100072033900020C5F60200FDF7D0FFF9
:102C200034B010BD000000002DE9F04381B004462F
:102C3000D0F8880020280BD10E4600294FF0010063
:102C40006AD01746002A67D094F88000012803D183
:102C5000022001B0BDE8F0831D46012084F8800009
:102C60000020C4F88C002221C4F88810E066FEF72A
:102C7000AFF8A4F85C708046A4F85E70A168B9B1A2
:102C8000B1F1805F18D0B1F5805F19D12069FF27BD
:102C90000146002818BF314608BF40F2FF17002840
:102CA00018BF0026A4F86070B1460E460FE000BFC2
:102CB000206938B9FF2706E0206918B13F2702E0F4
:102CC000002700E07F274FF00009A4F86070002083
:102CD00084F8800009E000BF384029F8020B002684
:102CE000B4F85E000138A4F85E00B4F85E0078B174
:102CF0002021002220464346009500F01DFE78B9B1
:102D00002068002E406AE7D0384006F8010BE7E75C
:102D10002020C4F88800002001B0BDE8F08300BF87
:102D2000032001B0BDE8F0832DE9F04381B00446F3
:102D3000D0F8840020280BD10E4600294FF0010066
:102D40005CD01746002A59D094F88000012803D19E
:102D5000022001B0BDE8F0831D46012084F8800008
:102D60004FF00009C4F88C902120C4F88400FEF7CD
:102D70002FF8A4F85470A4F856700746A168B1F56E
:102D8000805F07D1206900281CBF30464E46B04600
:102D9000064601E04FF0000884F8809009E000BF8B
:102DA000206816F8011B8162B4F856000138A4F8B7
:102DB0005600B4F8560088B18021002220463B46D8
:102DC000009500F0B9FD88B9002EE9D138F8020B62
:102DD000216800266FF35F208862E5E7402100222A
:102DE00020463B46009500F0A7FD18B1032001B036
:102DF000BDE8F0832020C4F88400002001B0BDE8C5
:102E0000F083000000000000FEE70000000000006A
:102E100080B540F6502044F60041C2F20040C5F6AD
:102E20000201016000218180C0E9051101210162D8
:102E3000FDF75AFE002808BF80BDBDE88040FDF7C1
:102E400003BE00000000000082B044F2E040C5F67E
:102E50000200016841F080010160016801F0800119
:102E600001910199016841F001010160006800F0E1
:102E700001000090009802B07047000000000000C0
:102E800080B540F6742041F20001C2F20040C4F265
:102E900001010C2201604FF4E13141600021C0E9E1
:102EA00002110161C0E90521C0E90711C0E909115A
:102EB000FFF712FE08B1FDF7C7FD40F674200021B0
:102EC000C2F20040FFF7C0FD08B1FDF7BDFD40F6BE
:102ED00074200021C2F20040FFF76EFD08B1FDF73B
:102EE000B3FD40F67420C2F20040FFF749FD002810
:102EF00008BF80BDBDE88040FDF7A6BD0000000012
:102F000080B5FFF7BDFFBDE8804002F0C1BB000007
:102F100002F05EBC00000000FEE7000000000000C0
:102F2000FEE7000000000000704700000000000005
:102F3000F0B581B044F22C47C5F6020757F8042CCF
:102F400002F00302032A03D1012001B0F0BD00BF4B
:102F5000054657F82C0C0C4620F0806047F82C0CE6
:102F6000FDF736FF064600BF57F82C0C000105D5CB
:102F7000FDF72EFF801B0228F6D964E057F8040CF9
:102F8000EE6895E80E0020F47C30012C40EA013018
:102F9000A2F101016FF35F214FF47E4202EB432265
:102FA00047F8040C92B24FF0FE4302EB01004FF4DD
:102FB000FE012A6901EB064101F4FE0103EB026206
:102FC000084402F0FE410844F8603868696920F05E
:102FD000C00040EA010038603868A96920F020008C
:102FE00040EA0100386038684FF6F87120F01000B0
:102FF00038603869EA6920EA01004FF4001140EABC
:10300000C2003861386808BF4FF4801140F01000EA
:10301000002C386008BF4FF400213868084338603E
:1030200057F82C0C40F0806047F82C0CFDF7D0FED0
:10303000044600BF57F82C0C000107D4FDF7C8FE6A
:10304000001B0328F6D3032001B0F0BD002001B01F
:10305000F0BD000000000000F0B581B044F22C4744
:10306000C5F6020757F8042C02F00302032A03D125
:10307000012001B0F0BD00BF054657F82C0C0C46EE
:1030800020F0805047F82C0CFDF7A2FE064600BF4A
:1030900057F82C0C800005D5FDF79AFE801B0228FE
:1030A000F6D964E057F8040CEE6895E80E0020F0BD
:1030B0007C70012C40EA0150A2F101016FF35F2105
:1030C0004FF47E4202EB432247F8040C92B24FF0D9
:1030D000FE4302EB01004FF4FE012A6901EB0641B9
:1030E00001F4FE0103EB0262084402F0FE410844D1
:1030F00078613868696920F4406040EA010038600E
:103100003868A96920F4007040EA01003860386826
:103110004FF6F87120F480703860B869EA6920EAE7
:1031200001004FF0807140EAC200B861386808BF02
:103130004FF4000140F48070002C386008BF4FF459
:10314000800138680843386057F82C0C40F08050F4
:1031500047F82C0CFDF73CFE044600BF57F82C0C3A
:10316000800007D4FDF734FE001B0328F6D30320AC
:1031700001B0F0BD002001B0F0BD00000000000073
:103180007047000000000000FDF72ABE00000000AC
:1031900070B59CB044F6180440F22C4509A84C21A7
:1031A000C5F60204C5F60005FDF70FFB0220002658
:1031B000CDE90766CDE90566CDE90366CDE901668F
:1031C000FDF7CAFE0096286820F0010028602868F4
:1031D00000F001000090206840F44040206020682A
:1031E00000F44040009000982068800409D42068D2
:1031F00080045CBF20685FEA804002D420688004BD
:10320000F2D54FF6DC40CFF6FF70215841F00201B5
:103210002150205800F002000090009800200090FB
:10322000206840F440402060206800F44040009056
:10323000286840F001002860286800F00100009034
:1032400000982068800409D4206880045CBF20684E
:103250005FEA804002D420688004F2D50120099002
:103260004FF480300A9002200521CDE9120014911C
:10327000A021CDE9151014210824CDE9171009A8C3
:1032800019940025CDE91A55FFF7D2F820B1EFF3D4
:10329000108072B6FEE700BF3F20019003204FF47C
:1032A0008061CDE9020540200494CDE90500CDE917
:1032B000071001A80221FEF747FE28B1EFF31080A6
:1032C00072B600BFFEE700BF1CB070BD000000007A
:1032D0004EF6885042F2000CCEF20000C5F2002CEF
:1032E000016841F470010160DCF8000000F00F009B
:1032F000062806D8DCF80000072161F30300CCF8AB
:10330000000044F200404EF67F52C5F60200CEF6B1
:10331000F622016841F001010160002101610368AA
:103320001A400260DCF80020120706D5DCF8002005
:10333000072363F30302CCF8002040F200228161EE
:10334000C161C0F20222016282620022C0F2FF1259
:10335000C26240F28022C0F20112026341638263C2
:10336000C16302644164026822F480220260016643
:1033700041F20000C5F600400068B1EB507F05D176
:1033800048F208100121C5F20010016044F200006B
:1033900043F2D201C5F20020016070470000000036
:1033A000816ACA070CD18A0715D44A071ED40A07B6
:1033B00027D4CA0630D48A0639D44A0655D541E006
:1033C0000268D0F82CC0536823F4003343EA0C039E
:1033D00053608A07E9D50268D0F830C0536823F4F7
:1033E000803343EA0C0353604A07E0D50268D0F803
:1033F00034C0536823F4802343EA0C0353600A0764
:10340000D7D50268D0F838C0536823F4004343EAA4
:103410000C035360CA06CED50268D0F83CC093684E
:1034200023F4805343EA0C0393608A06C5D50268EF
:10343000D0F840C0936823F4005343EA0C03936030
:103440004A0612D50268D0F844C0BCF5801F536804
:1034500023F4801343EA0C03536006D1536823F42A
:10346000C00C836C43EA0C035360090658BF7047D5
:103470000168C06C4A6822F400221043486070471B
:1034800070B584B00446006804F1080340F6004EAD
:10349000E669C5F6000E0ECB194363690B4346F689
:1034A000F3110568CCF6FF713343294019430160DD
:1034B00041684FF2FF4321F44051704541EA020157
:1034C0004160A269C1F2FF131CBF216A0A438168EF
:1034D00044F2544C1940C5F6020C1143816047F286
:1034E000FF72C16AC4F2000221F00F01656A9042C6
:1034F0004FF0800341EA0501C16221DD40F6FF7112
:10350000C4F2010188422FDD704500F0FB8041F2DA
:103510000041C4F20101884205D041F20001C4F229
:103520000101884247D1DCF80010C1F3C202062A2B
:1035300080F0F0804BF22061C0F6000139E000BF5E
:1035400044F6FF31C4F2000188421BDC44F2004122
:10355000C4F20001884221D044F60001C4F2000107
:1035600088421BD027E000BF47F60001C4F20001EB
:10357000884213D047F60041C4F2000188420DD0C2
:1035800019E000BF44F60041C4F20001884205D0B2
:1035900045F20001C4F2000188420CD1DCF80010B1
:1035A00001F00702062A80F0B5804BF22661C0F6D2
:1035B00000018B181B78704540F60010C0F23D00EA
:1035C00000F0B080B6F5004F40F04E80402B4FF039
:1035D000010100F2A281DFE813F041001D01A0010A
:1035E000A0012301A001A001A0012B01A001A001C5
:1035F000A001A001A001A001A0013301A001A00130
:10360000A001A001A001A001A001A001A001A001B2
:10361000A001A001A001A001A0014301A001A001FF
:10362000A001A001A001A001A001A001A001A00192
:10363000A001A001A001A001A001A001A001A00182
:10364000A001A001A001A001A001A001A001A00172
:10365000A001A001A001A001A0014101FEF7D0FD41
:10366000002840F0DA80E9E0402B4FF0010100F241
:103670005481DFE813F04100130152015201190196
:1036800052015201520121015201520152015201D3
:1036900052015201520129015201520152015201BB
:1036A0005201520152015201520152015201520182
:1036B000520152015201390152015201520152018B
:1036C0005201520152015201520152015201520162
:1036D0005201520152015201520152015201520152
:1036E0005201520152015201520152015201520142
:1036F0005201520152013701FEF782FD002840F0CD
:10370000D080DFE0DCF8041001F00702062A01D2C5
:1037100086A14EE78023704540F60010C0F23D00C0
:103720007FF450AF9A1E01211E2A27D8DFE812F03D
:103730002000F5002C00F500F500F5003400F50040
:10374000F500F500F500F500F500F5003C00F5008A
:10375000F500F500F500F500F500F500F500F500C1
:10376000F500F500F500F500F500F500490000BF93
:10377000FDF71AFCB0B1656A23E000BF402B40F0B2
:10378000CC804FF400401CE001A8FDF721FC02981A
:103790000028F0D106E000BF01A8FDF7DDFC02988B
:1037A0000028E8D10021B8E05CF8540C800649F20A
:1037B0000000C0F2D03004D55CF8541CC1F3C10144
:1037C000C8404BF246616268C0F6000131F815103E
:1037D000B0FBF1F002EB420188424FF00101C0F072
:1037E0009C801303984200F29880010E002300028F
:1037F00010EB520041F10001FCF738FE4FF6005289
:10380000A0F54071C0F20F029142C0F0808001210A
:1038100083E000BFFEF724FD80B1656A20E000BFB1
:1038200001A8FDF7D5FB02980028F6D106E000BFFD
:1038300001A8FDF791FC02980028EED100216CE070
:103840005CF8540C800649F20000C0F2D03007D575
:103850005CF8541CC1F3C101C84001E04FF40040C2
:103860004BF24661C0F6000131F81510B0FBF1F0E3
:1038700061684A0802EB40004FF6EF72B0FBF1F0CE
:10388000A0F11001914207D84FF6F0710140C0F34A
:10389000420008443BE000BF01213EE0FEF7E0FCAF
:1038A00080B1656A20E000BF01A8FDF791FB029896
:1038B0000028F6D106E000BF01A8FDF74DFC0298F4
:1038C0000028EED1002128E05CF8540C800649F273
:1038D0000000C0F2D03007D55CF8541CC1F3C10120
:1038E000C84001E04FF400404BF246616268C0F608
:1038F000000131F81510B0FBF1F000EB5200B0FB05
:10390000F2F0A0F110014FF6EF72914204D8216855
:10391000C860002101E000BF01214FF00110A06646
:103920000020C4E91C00084604B070BD0204081061
:1039300020400000000000002DE9F041044600682E
:103940000D46C7693940491BB1FA81F149099142D5
:1039500040F0A780DDF81880B8F1000F2AD0164695
:1039600018F1010140F08680C1692940491BB1FA74
:1039700081F14909B14240F09480C1692940491B55
:10398000B1FA81F14909B14201BFC1692940491B1E
:10399000B1FA81F104BF4909B14240F08280C169A6
:1039A0002940491BB1FA81F14909B142DCD000201C
:1039B000BDE8F081FDF70CFA206850E8000F21689F
:1039C00020F4D07041E80002F2B1206850E8000F06
:1039D000216820F4D07041E80002002A1FBF20684F
:1039E00050E8000F216820F4D0701CBF41E80002AD
:1039F000002A09D0206850E8000F216820F4D07018
:103A000041E80002002AD7D1206850E8020F21685F
:103A100020F0010041E80202F2B1206850E8020FF4
:103A2000216820F0010041E80202002A1FBF20683F
:103A300050E8020F216820F001001CBF41E802029B
:103A4000002A09D0206850E8020F216820F0010008
:103A500041E80202002AD7D12020C4F8840004F1F2
:103A6000880020210160002084F880000320BDE848
:103A7000F08100BF1F4600BFFDF7AAF9C01B4045FB
:103A80009AD820680168490744BFC1695FEA0151BB
:103A90000AD4C0692840401BB0FA80F04009B04207
:103AA000EAD00020BDE8F0814FF40061016200E03F
:103AB000206850E8000F216820F4D07041E800022F
:103AC000EAB1206850E8000F216820F4D07041E886
:103AD0000002A2B1206850E8000F216820F4D070E5
:103AE00041E80002002A1FBF206850E8000F21684B
:103AF00020F4D0701CBF41E80002002AD8D1206811
:103B000050E8020F216820F0010041E80202F2B102
:103B1000206850E8020F216820F0010041E802020D
:103B2000002A1FBF206850E8020F216820F0010022
:103B30001CBF41E80202002A09D0206850E8020FA9
:103B4000216820F0010041E80202002AD7D120209C
:103B5000C4F88400C4F8880004F18C0081E70000F8
:103B6000FEE700000000000080B582B040F6F810CB
:103B70008DF80710C2F20040007850B940F674206A
:103B80000DF10701C2F2004001224FF0FF33FFF7B1
:103B9000CBF802B080BD00002DE9F04F93B00C4689
:103BA00000294FF00001D2F8089048BF0121924649
:103BB00009F0040201EA920B0646BBF1010F4FF037
:103BC000000802928DF84B800AD17642DAF80000A4
:103BD00068EB04074FF02D080138CAF8000000E038
:103BE00027465FEA09704FF0370058BF57205FEA59
:103BF000C96125D403A8CDF8048000F13E08002552
:103C00000A22002330463946FCF730FC00EB8002E4
:103C1000B6F10A0377F100030F46A6EB420206460F
:103C200002F1300208F80520A5F10105E8D205F1FE
:103C30003F0005F13E076E42EA43DDF804801EE0D6
:103C400003A9A44601F13E02002100BF06F00F05C2
:103C5000330905F1300443EA0776092D46EA1713C4
:103C600088BF44193F09002B5454A1F10101EDD143
:103C700001F13F0001F13E074E42CA43644609F09C
:103C8000010181F0010303EA0B03012B05D103AB12
:103C90000238961C03F807800746DAF8005009F04E
:103CA0000209B54214DDB9F1000F11D1B81900298C
:103CB000A0EB050703A83844A5EB060100F10100BD
:103CC00002D1202201E000BF3022FCF754FD2E4635
:103CD000B4F1FF3F09DC029838B1AE4205DC03A81D
:103CE000791E013600F807800F46012E10DB03A86D
:103CF00038443746451E00BFA978DAE903209047CB
:103D0000013F05F10105F7D1DAF8080000F00209DA
:103D1000B9F1000F0DD0DAF80000864209DA00BFD1
:103D2000DAE90320202190470136DAF800008642C4
:103D3000F6DB304613B0BDE8F08F00000000000055
:103D4000030AC2B211B104A002F002BE0EA01146D5
:103D50001A4602F0FDBD00BF453A20414920657278
:103D6000726F722028257329202D20747970653D8B
:103D700030782530327820636F64653D30782530A7
:103D800032780D0A00000000453A20414920657252
:103D9000726F72202D20747970653D307825303235
:103DA0007820636F64653D3078253032780D0A00E5
:103DB0002DE9F04F81B02DED048B90B041F2040459
:103DC00040F6FC15CEF20004C2F200450592D0F890
:103DD00080000690884620686968461A0027FCF72C
:103DE000F7FFAA682968801A884205D9B0FBF1F06C
:103DF0004FF0FF31E0FB01670EA95FEA8870C1E96F
:103E0000006700F1B5805FEA487040F1E180FCF79F
:103E1000DFFFA860002727604FF0000A2068686075
:103E20000EA89FED729AD0E90001069ED6E90832ED
:103E3000C018059B51414FF40032C6E90801B06833
:103E4000317D0130B0605FEA8850D86858BF4FF4C8
:103E5000803200295988048818BF02F100426FF3AC
:103E6000DF31022C1144049124BF406800F10C079B
:103E700007A81530039044E0A8694FF00008B0EEA1
:103E8000498A0068A96907900026C868089001213E
:103E90002846CDE9096607F07BF90B90039A287A4A
:103EA000022C8DF83000A346B5F809003C46E97AAB
:103EB00010809170E8680D9028BF3E88049D701EA8
:103EC000824538BF45F480250698C668076905987D
:103ED000B0F804900EA8D0E9000102F09DFAF0EECF
:103EE000480A07A801900222304639462B46CDF8F1
:103EF0000090CDF80880274600F0BEFD0AF1010AC7
:103F00005C46022C04D33888824504D340E000BFCD
:103F1000002082453CD2786800281CBF50F82A5007
:103F2000002D35D02A68002AA6D051680029A3D0D8
:103F30005088B0EE498A00281CBF086890ED008ABE
:103F4000A8690068030207D471B1528862B1496858
:103F500091F8008096E700BF31B1528822B14968DC
:103F600091F900808EE700BF4FF000088AE700BF9C
:103F7000069A5FEAC851506800F10100506027D5E9
:103F80000EA8D0E90001069AC2E9080120E000BFAE
:103F900041F2040440F6FC15CEF20004C2F20045E2
:103FA000002620686968471AFCF712FFAA6829688A
:103FB000801A884205D9B0FBF1F04FF0FF31E0FBE9
:103FC0000176069AD2E90601C0197141C2E90601DB
:103FD000FCF7FEFEA86000202060002021686960D8
:103FE00010B0BDEC048B01B0BDE8F08F0000000004
:103FF000002814BF00690020704700000000000086
:104000002DE9F04F83B0176804464FF0000A3A6874
:10401000D07D9669B2F81510D6F80080D6F80C90CD
:1040200041EA00450021D6E901BC052D4FF0000012
:1040300005D3062D316901D1706900E000203E6989
:10404000D7F804E0C7F80CA03568402D26D01368D7
:104050009D4223D133695B4522D1B3684B451FD1C3
:10406000F36863451CD17368434519D1336A8B42A9
:1040700016D1716A814213D1BEF1000F34D00121F3
:10408000104605F03BFE00FB08F0294605F02DFE2A
:1040900005463A687860A06838B929E0022000E057
:1040A0000520F8600025A06810B35668E8460BE0CC
:1040B0009DF8000006F8010B013DA068B9680028D2
:1040C00001F10100B86013D001222046414604F0FE
:1040D00063F928B1012DF0DB002EE9D10026EBE7D2
:1040E000002003B0BDE8F08F0025A0680028DCD1D7
:1040F000F86818B1012003B0BDE8F08FD7E90101DD
:1041000081424FF0010018BFF86003B0BDE8F08FA6
:104110002DE9F04381B017687E6806B3044638681D
:10412000E8B10D468169D0F80080D1F800900121F6
:1041300005F0E4FD00FB09F0414605F0D6FD3968C5
:1041400080462046D1F80490294603F0E1FE58B19C
:1041500020464946424603F03BFE28B1BE6001209E
:1041600001B0BDE8F08300BF002001B0BDE8F083DE
:104170002DE9F04182B006460446884616F80C0F39
:10418000B0B140F60430C2F20040016831B3476874
:104190003846FCF70FFA05463046FCF70BFA854225
:1041A0001CD1384631462A46FCF723FAB0B907E05D
:1041B000A06898B940F60430C2F20040006868B1C7
:1041C00040F604300022C2F200404146031D204662
:1041D00002B0BDE8F04100F0E7BC00BF04220423B8
:1041E000042000902046414600F026FC02B0BDE8C5
:1041F000F0810000000000002DE9F04F81B02DEDAE
:10420000028BA4B0064680460C4616F80C0FB8B1D7
:1042100040F60439C2F20049D9F8000080B1D9F85B
:1042200004703846FCF7C6F905463046FCF7C2F97B
:10423000854205D1384631462A46FCF7DAF968B19D
:1042400004220423042000904046214600F0F4FBA1
:1042500024B0BDEC028B01B0BDE8F08F40F6883091
:10426000D8F80820C2F20040002193070594017598
:1042700002F00102027002D5012202700275B9F843
:104280003420C9F88000C0E90111002ACDF810805F
:10429000C0E90611C0E9081100F0E880501E0328AB
:1042A00040F60430C2F20040D0F8389002F003002B
:1042B000039003D24FF0000B6FE000BF40F270613B
:1042C0000026C2F200410DF1380C01F1080E4FF04A
:1042D000000B22F00300069009EB06010CEB06042C
:1042E00001F10C0804F10C03D1E9017598E805010E
:1042F00059F806A04CF806A083E80501C4E9017549
:104300008869A0614F680BF1040B002F06F170065D
:1043100008BF5EF8087C0F97D1E90782D1E90957F9
:10432000D1E90B30C4E90B30C4E90957C4E907826D
:10433000486B60630F6A002F08BF5EF8047C0F971C
:1043400001F14007D1E90E82A8CFC86CE06404F106
:104350004000C4E90E82A8C0086D2065CF6B002F15
:1043600008BFDEF800700F9701F15C07D1E91582F4
:10437000A8CF886EA06604F15C00C4E91582A8C0CD
:10438000C86EE066896D002908BFDEF80410069843
:104390000EF1100E58450F919ED10398DDF8108054
:1043A000002863D0CBEBCB030DF1380A09EB830770
:1043B00059F823C00AEB8306D7E901E2D7E90315D0
:1043C0007C694AF823C07461C6E90315C6E901E2B5
:1043D000B969B1617B682BB940F27061C2F20041EA
:1043E00051F82B3001280F9340D00BF1010CCCEB8E
:1043F000CC0109EB810759F821E03D1D0AEB81064C
:104400007C692DCD4AF821E0311D74612DC1B96957
:10441000B1617F682FB940F27061C2F2004151F87A
:104420002C7003980F97022820D00BF1020CCCEBD4
:10443000CC0109EB810359F821000AEB8107D3E98C
:1044400001E5D3E903425E694AF821007E61C7E9CC
:104450000342C7E901E59869B861586828B940F294
:104460007060C2F2004050F82C000F9040F6043704
:10447000C2F20047F98E002900F0FB80481ED7F8F1
:104480003CC0032801F00300069003D24FF0000B5C
:104490006CE000BF40F2746221F0030EC2F20042F1
:1044A000002602F108090DF11C084FF0000B00BFB7
:1044B0000CEB060108EB060401F10C035CF8067036
:1044C000D1E901A50DCB48F8067004F10C07C4E949
:1044D00001A50DC78869A0614F680BF1040B002F7F
:1044E00006F1700608BF59F8087C089701F1240707
:1044F000D1E907A2A8CF086B206304F12400C4E926
:1045000007A2A8C0486B60630F6A002F08BF59F864
:10451000047C089701F14007D1E90EA2A8CFC86C2E
:10452000E06404F14000C4E90EA2A8C0086D206553
:10453000CF6B002F08BFD9F80070089701F15C0716
:10454000D1E915A2A8CF886EA06604F15C00C4E989
:1045500015A2A8C0C86EE066896D002908BFD9F809
:104560000410DE4509F110090891A1D1069A40F620
:104570000437002ADDF81080C2F2004779D0CBEB77
:10458000CB030DF11C0E0CEB83075CF823100EEB34
:10459000830607F1040A301D9AE80007D7E904549E
:1045A0004EF82310C6E9045480E80007B969B161E8
:1045B0007B682BB940F27461C2F2004151F82B3094
:1045C00040F60437012ADDF81080C2F20047089354
:1045D0004FD00BF10108C8EBC8010CEB81045CF86B
:1045E000213004F10C070EEB8105D4E9019AC1CF0B
:1045F0004EF8213005F10C01C5E9019AC1C1A1694C
:10460000A96167682FB940F27461C2F2004151F8A4
:104610002870089740F60437022ADDF81080C2F2AD
:10462000004726D00BF10209C9EBC9010CEB81034D
:104630005CF821000EEB8107D3E90185D3E9034241
:104640005E694EF821007E61C7E90342C7E9018532
:104650009869B861586828B940F27460C2F20040A5
:1046600050F8290040F60437DDF81080C2F2004708
:1046700008900EAE3046FFF7BBFC059D03460122B5
:10468000404629460024009400F0D6F9B88E8442B2
:104690000ED201340122844240462946334608BFE7
:1046A000022200F05DF9002806F11C06EED1CFE5EC
:1046B000D7F880603078A0B1386890B123A915AAE6
:1046C000C6E9038501F028FA43F6B150C0F60000B0
:1046D00046F8280F06203146C6E90170239806F0F7
:1046E000BFF941F20404CEF20004FCF771FB40F67E
:1046F000FC160EA9C2F2004607AAB0600020206096
:1047000020687060386801F077FA01286CD1206861
:104710007168441A4FF00009FCF75AFBB26831681F
:10472000801A884205D9B0FBF1F04FF0FF31E0FB71
:104730000149D7F8800000F118064ECE091942EB66
:104740000902C81842EB060182468B4601F064FE5E
:10475000D7F88000007888B11520E8800020A86094
:1047600085ED060A0222B96F6961E86001202861BF
:104770004046294600F0CCFB00F0E2FBFE8EEEB195
:10478000002407AD9FED268A4FF000095046594698
:1047900009F1010901F040FEF0EE480A0222B1459C
:1047A000009408BF03220023404605990195029416
:1047B00000F062F9FE8E1C35B145E7D3D7F8804092
:1047C000207800283FF444AD386823A915AA01F0E9
:1047D000A3F9239804F1280106F06CF924B0BDEC8C
:1047E000028B01B0BDE8F08F386801F085F908A1AF
:1047F000FFF7A6FA04220A230A2000904046294621
:1048000000F01AF924B0BDEC028B01B0BDE8F08FC6
:1048100061695F6D6E6574776F726B5F72756E0044
:10482000000000000000000080B50B460A2140F2A5
:10483000032CD98042F0020189B2C3F808C04FF4BA
:10484000806CD9604CEA1241196100681860002040
:10485000187140F6EC304BF66221C2F20040C0F60F
:10486000000110301A4603F073FABDE8804003F0EF
:104870005FBD000000000000B0B50C4605460B20EF
:10488000C880FCF791FAA060FDF71AFDE060FDF723
:104890008FFC206102F010F860614BF662212868FD
:1048A00020600020207140F6EC30C0F60001C2F21A
:1048B00000402246103003F04BFABDE8B04003F050
:1048C00037BD00000000000070B586B040F6EC3443
:1048D0000546C2F200444FF424712046FBF775FFF1
:1048E00003F052FD01A80021002603F031FD0198DC
:1048F0002060029860600398A0600498E06001A8BE
:10490000002103F031FD0198206102986061039855
:10491000A0610498E0610598C4E90806A662D5B1D3
:104920006868B8B105F13401032000BF51F8242CA8
:1049300062B151F8182C5AB151F80C2C4AB151F807
:10494000302B0430002AF1D1033802E0023800E0B5
:104950000138A0626562012084F88C0206B070BD47
:104960002DE9F04194B0002703970193002B0497A1
:104970000C4618BF1F69064644F20100029740F634
:10498000EC37C2F200474BF28B61154606AAC0F61F
:104990000000109001A81190C0F600013846059261
:1049A00002F062FC03F0B8FC0498B8B10C21E1807D
:1049B000A0604BF662212073C0F6000130682060D1
:1049C0000420207107F11000224603F0C1F903F022
:1049D000AFFC002014B0BDE8F08100BF0C20E080E7
:1049E0000398A0604FF0000884F80C804BF6622119
:1049F0003068206007F11000C0F6000122462571E2
:104A000003F0A6F903F094FC681E01280ED840F6C6
:104A1000EC304BF25E61C2F20040C0F6000112AA17
:104A2000CDE9128802F020FC03F076FC012014B0DE
:104A3000BDE8F0810000000080B58C46DDF808E09C
:104A40000C21CCF808308CF80CE00068CCF80000A1
:104A500040F6EC30ACF80610C2F200404BF6622192
:104A60008CF804201030C0F60001624603F070F9A3
:104A7000BDE8804003F05CBC2DE9F04188B0904671
:104A80000A460F9D002603960E9C019529690496FF
:104A9000B3F1FF3F0291A968059623F00043D8BF08
:104AA00002960E26D680C2E9023482ED040A2C4614
:104AB000AB692E6856611E689661DE68D6619E6895
:104AC00016625E68566234F8156FA77846EA0747A3
:104AD000052F01D31E6900E000265663A7782688BB
:104AE00046EA0747062F01D35B6900E00023936382
:104AF0006B681363E1B1F5EE400AF1EE10FA17D1DD
:104B00000023C2E90A330B78DB0715D0496899B155
:104B10004B68002B46D04F88002F43D0D3E9007359
:104B20003F6897620F881978BB0704D449B202E046
:104B30001099C2ED0A0AD16244F21111C0F60001C7
:104B4000D16301A911640068106040F6EC304BF6A7
:104B50006221C2F20040C0F60001103082F80480E9
:104B600003F0F6F803F0E4FBB8F1020F14D10020D3
:104B70004BF25E61CDE9060040F6EC30C0F6000174
:104B8000C2F2004006AA02F06FFB044603F0C4FB29
:104B9000204608B0BDE8F0810124204608B0BDE8F9
:104BA000F08100BF0021C6E72DE9F04F83B01F68F8
:104BB00004461420C88038469A4691468B4601F137
:104BC0000805FBF7F7FC402888BF3F20002F18BFDF
:104BD00000280DD14420288144F64610C4F24E50DE
:104BE000686044F65560C4F24450286005E000BF98
:104BF000421C28463946FBF747FDDAF804700BF1F2
:104C000048053846FBF7D6FC402888BF3F20002FD8
:104C100018BF00280CD14420288144F64610C4F265
:104C20004E50686044F65560C4F24450286004E079
:104C3000421C28463946FBF727FDDAF808700BF1CD
:104C400088053846FBF7B6FC402888BF3F20002F78
:104C500018BF00280CD14420288144F64610C4F225
:104C60004E50686044F65560C4F24450286004E039
:104C7000421C28463946FBF707FDDAF80C700BF1A9
:104C8000C8053846FBF796FC402888BF3F20002F18
:104C900018BF00280CD14420288144F64610C4F2E5
:104CA0004E50686044F65560C4F24450286004E0F9
:104CB000421C28463946FBF7E7FCDAF810700BF582
:104CC00084753846FBF776FC402888BF3F20002FCC
:104CD00018BF00280CD14420288144F64610C4F2A5
:104CE0004E50686044F65560C4F24450286004E0B9
:104CF000421C28463946FBF7C7FCDAF818700BF55A
:104D0000A6753846FBF756FC402888BF3F20002F89
:104D100018BF00280CD14420288144F64610C4F264
:104D20004E50686044F65560C4F24450286004E078
:104D3000421C28463946FBF7A7FCBAF8300002941B
:104D4000CBF8A001BAF83200CBF8A401DAF874006D
:104D5000CBF8A801DAF82C00CBF89C01DAF878003F
:104D6000CBF80C02DAF8240000BACBF89401DAF898
:104D7000280000BACBF89801DAF8140000BACBF892
:104D80004801DAF81C0000BACBF88C01DAF82000F0
:104D900000BACBF89001BAF84A20002052B1511E57
:104DA000DAF84CC0032902F0030E05D200270023D5
:104DB0001AE000BF00232AE022F00305ACF17002E4
:104DC00000270023D2F88010D2F89C601944D2F852
:104DD000B8403144D2F8D48004372144BD4208EBB6
:104DE000010302F17002EDD1BEF1000F0FD0C7EB4D
:104DF000C701BEF1010F0CEB810211690B4406D013
:104E0000D16ABEF1020F0B441CBF916C0B4440F2FF
:104E1000404E0122C0F2040ECBF8BCE1CBE9702277
:104E2000CBE97223CBE97400CBE97600CBF8E00143
:104E3000BAF84210C1B3481E01F003080328DAF89B
:104E40004400CC46019003D20025002017E000BFAB
:104E500021F00301A0F1700700250020D7F8804061
:104E6000D7F89C602044D7F8B8303044D7F8D490B5
:104E700004351844A942484407F17007EED1B8F14F
:104E8000000FE14610D0C5EBC501019BB8F1010F41
:104E900003EB81010B69184406D0CB6AB8F1020F0D
:104EA00018441CBF896C0844CBF8F4010020CBE9FE
:104EB0007E00CBE98000CBF8080246F6A920C0F6B8
:104EC0000000CBF8AC0146F6B920CBF8B8A1C0F68B
:104ED00000004BF66221CBE96CA00298C0F60001FD
:104EE000CBE979E20068CBF8000040F6EC308BF8B3
:104EF0000490C2F20040CBE97B2210305A4602F007
:104F000027FF03B0BDE8F04F03F012BA0000000025
:104F100080B50068086040F6EC300B460A71C2F2BA
:104F200000404BF662211030C0F600011A4602F034
:104F30000FFFBDE8804003F0FBB900000000000057
:104F400010B582B000204BF25E61CDE9000040F662
:104F5000EC30C0F60001C2F200406A4602F084F96B
:104F6000044603F0D9F9204602B010BD000000004D
:104F7000F0B581B003F0D0F940F6EC344BF60821DF
:104F8000C2F20044C0F6000104F12C0720463A4664
:104F900002F06AF9002852D003F0BEF9A06A02219B
:104FA00084F88C12A0B3D4F824C094F83010424294
:104FB0000CF11803032613F8180C884216D0901928
:104FC000022825D013F80C5C8D4211D001281FD087
:104FD0001D788D420ED0D8B1187B88420BD0043694
:104FE000303390190328E6D112E000BF033E02E0FF
:104FF000023E00E0013E06EB460004F17C010CEBB2
:105000008000D0E9013238469847A06A864213D121
:105010002246E06A4BF6622142F87C0F0C20D080D9
:1050200004209060C0F6000110731071A2F16C00B2
:1050300002F08EFE03F07CF9012084F88C0203F06C
:105040006BF9002001B0F0BD80B584B005F04CFDD7
:10505000C1B20023C0F30722C0F3074C05A0CDE97D
:10506000001201210122CDF808C001F071FC04B04A
:1050700080BD00BF0D0A414920706C6174666F727B
:105080006D20284150492025642E25642E2564205A
:105090002D2052554E54494D452025642E25642E11
:1050A0002564290D0A000000F0B581B0054680692D
:1050B00001682C68D0E90232C3A001F049FCE87D08
:1050C000B5F8151041EA0040062809D005280FD18F
:1050D000A86942680169C2A001F03AFC0DE000BF76
:1050E000A8694368D0E90412BAA001F031FC04E0D9
:1050F000A8694168BCA001F02BFC0121284604F0FE
:10510000FDFD0146B9A001F023FCC4F34340032890
:105110000CD0012816D1C4F3C611B7A001F018FCB9
:1051200004F4F010B0F5802F1CD02DE1C4F3C611AB
:10513000AFA001F00DFC04F4F010B0F5802F11D0F9
:1051400022E100BF2002AEA0C4F3C612ADA158BF39
:105150000146ADA001F0FCFB04F4F010B0F5802F87
:1051600040F01281A86800281CBF01785FEAC17175
:1051700016D1C4F3C611072904D8ABA001F0E8FB8F
:1051800002E100BFC4F3C05204F07F000244891A58
:10519000A0F140024031A2A001F0DAFBF4E000BF30
:1051A00040680028E5D0468899A037463146042E4D
:1051B00028BF042701F0CCFB002F00F0DB80A8689B
:1051C0009FED950A10B30178C9071FD042689FED83
:1051D000920A3AB1516829B15288002A1CBF096865
:1051E00091ED000A416889B108888007486807D4B2
:1051F00060B1498851B1406890F9001007E000BFE4
:1052000020B1498811B14068017800E00021B7EE73
:10521000C00A47F65830C0F60100009153EC102B3D
:1052200001F096FB012F00F0A580A8689FED7A0A97
:1052300020B30178C90721D042689FED770A3AB1BF
:10524000516829B15288022A24BF096891ED010AE8
:10525000416899B108888007486807D470B14988C7
:1052600002290BD3406890F9011008E030B1498859
:10527000022903D34068417801E000BF0021B7EE66
:10528000C00A47F65830C0F60100009153EC102BCD
:1052900001F05EFB022F6DD0A8689FED5F0A28B376
:1052A0000178C90722D042689FED5B0A3AB1516884
:1052B00029B15288032A24BF096891ED020A416886
:1052C000A1B108888007486808D478B149880329C3
:1052D0000CD3406890F9021009E000BF30B1498852
:1052E000032903D34068817801E000BF0021B7EEB5
:1052F000C00A47F65830C0F60100009153EC102B5D
:1053000001F026FB032F35D0A8689FED430A28B390
:105310000178C90722D042689FED3F0A3AB151682F
:1053200029B15288042A24BF096891ED030A416813
:10533000A1B108888007486808D478B14988042951
:105340000CD3406890F9031009E000BF30B14988E0
:10535000042903D34068C17801E000BF0021B7EE03
:10536000C00A47F65830C0F60100009153EC102BEC
:1053700001F0EEFA47F6794028A1C0F60100042EAC
:1053800088BF084601F0E4FA6E68012128466EB134
:1053900004F0B4FC214604F0A8FC26A1024608460D
:1053A000314601B0BDE8F04001F0D2BA04F0A6FCED
:1053B000214604F09AFC22A102460846114601B09B
:1053C000BDE8F04001F0C4BA2825642C25642C25E2
:1053D000642C000025642C25642C25642900000021
:1053E00025642C25642900002564290025642F00EC
:1053F000626F6F6C25640000666C6F6174256400D9
:10540000750000006900000025732564000000009D
:105410002025643A00000000000000002E2E00004D
:10542000205125642E25640020696E7433322D25A9
:10543000646200002040307825582F256400000069
:1054400020285573657220446F6D61696E292F2580
:1054500064000000000000002DE9F04381B0044624
:1054600047F64F20C0F6010001F072FA47F6FC2023
:105470002168C0F6010001F06BFA61685FA001F0DD
:1054800067FAA16864A001F063FAE16869A001F01D
:105490005FFA217D6EA0627DA37D01F059FAA169BA
:1054A000087828B147F61730C0F6010001F050FA2D
:1054B000217F47F6DB20627FC0F60100A37F01F069
:1054C00047FA47F66920E16AC0F6010001F040FAA8
:1054D00047F68A20616FC0F6010001F039FAB4F88E
:1054E0004A1047F6C020C0F6010001F031FAB4F8C6
:1054F0004A00D8B147F6503847F62A190026C0F6B8
:105500000108C0F601090027E06C394685194046BC
:1055100001F01EFA2846FFF7C7FD484601F018FAC9
:10552000B4F84A0001371C368742EDD3B4F8421074
:1055300047F6A520C0F6010001F00AFAB4F84200CF
:10554000E0B147F6503847F62A190026C0F60108A0
:10555000C0F60109002700BF606C39468519404636
:1055600001F0F6F92846FFF79FFD484601F0F0F9F3
:10557000B4F8420001371C368742EDD3218E47F63E
:105580003230628EC0F6010001F0E2F9208EB8B12F
:1055900047F62A1600250FF2DC08C0F601060027A0
:1055A0004046394601F0D4F9606B2844FFF77CFD92
:1055B000304601F0CDF9208E01371C358742EFD3FC
:1055C000608EB8B147F62A1600250FF2B408C0F66F
:1055D000010600274046394601F0BAF9A06B28447D
:1055E000FFF762FD304601F0B3F9608E01371C35DC
:1055F0008742EFD301B0BDE8F08300BF206D6F6438
:10560000656C207369676E61747572652020202057
:105610003A2025730D0A0000206D6F64656C2064CC
:1056200061746574696D6520202020203A202573FF
:105630000D0A000020636F6D70696C6520646174F1
:105640006574696D652020203A2025730D0A0000DD
:105650002072756E74696D652076657273696F6E00
:10566000202020203A2025642E25642E25640D0A52
:10567000000000002020495B25645D200000000040
:1056800020204F5B25645D2000000000000000002A
:105690002DE9F04385B02FA001F05AF92FA033A1D6
:1056A0000622012301F054F938A001F051F902F06B
:1056B000C7FF00F031FC4EF6FC5641F20005CEF279
:1056C0000006CEF20005002740F201083068C0F263
:1056D000020840F0807030606F604FF06409286805
:1056E00040EA0800286064206F60FBF755FA68689C
:1056F00048F21F51C5F2EB1101ACA0FB010122469B
:105700004809002100F0A4FEDDE90201049A00FB33
:1057100009111FA001F01CF94FF0FF3000212246B3
:1057200000F096FEDDE902014FF47A7200FB0210F0
:1057300040F6FC11C2F200410860306840F0807011
:1057400030606F600020296841EA0801296005B0D7
:10575000BDE8F0830D0A230D0A0000002320257305
:105760002025642E25640D0A0000000041492056C2
:10577000616C69646174696F6E20284F6273657231
:10578000766572206261736564290000230D0A004A
:105790002054696D657374616D70202020203A205B
:1057A0005379735469636B202B2044575420284845
:1057B000414C5F44656C61792831293D25642E2573
:1057C000303364206D73290D0A00000000000000D2
:1057D0002DE9F04381B0FFF737FC40F6043000219B
:1057E000C2F2004001605DA001F0B2F8002000218B
:1057F00000F05AF9002800F07E8040F60434064696
:105800000125C2F200440FF2741962A70FF2B81812
:105810004846314601F09CF83846314601F098F888
:1058200000223046214600F0DFF8010660D14046F4
:1058300001F08EF8261D2068314600F0A5F90028F9
:1058400020686CD000F0ACF90028206856D03146B2
:1058500000F09AF9002861D03046FFF7FDFD0020E6
:10586000294600F021F90646002805F1010504F15A
:105870008404CDD147F62A14C0F60104204601F075
:1058800067F847F60705C0F60105284601F060F8FD
:1058900047F6FF00C0F6010001F05AF8284601F073
:1058A00057F8204601F054F847F68800C0F601008A
:1058B00001F04EF847F6CE00C0F6010001F048F8BE
:1058C00047F635000221C0F60100032201F040F83E
:1058D00040F67000C2F20040FEF7F6FFFFF748FB0B
:1058E0000028FBD00446204601B0BDE8F08300BF8D
:1058F00030A1FEF725FA4FF0FF341FE000F0FCF86E
:1059000047F64211C0F60101FEF71AFA206800F0CE
:10591000B7F8002020606FF003040FE0206800F06B
:10592000EBF847F62D11C0F60101FEF709FA2068E1
:1059300000F0A6F8002020606FF0010447F6720026
:105940002146C0F6010001F003F84FF4FA60FBF7BE
:1059500023F9204601B0BDE8F08300BF44697363BA
:105960006F766572696E6720746865206E657477FE
:105970006F726B2873292E2E2E0D0A000D0A466FAA
:10598000756E64206E6574776F726B2022257322AA
:105990000D0A00004372656174696E672074686562
:1059A000206E6574776F726B20222573222E2E0D68
:1059B0000A00000061695F6D6E6574776F726B5FDE
:1059C0006372656174650000496E697469616C6930
:1059D0007A696E6720746865206E6574776F726B84
:1059E0000D0A0000000000002DE9F04140F61024EF
:1059F000C2F2004427462368002B18BF00272BB1B2
:105A00004FF4805131200843BDE8F081064678B15B
:105A1000304615468846FAF7CDFD072808D147F2EB
:105A2000FF700722C0F601003146FAF7E2FD28B107
:105A30004FF4805114200843BDE8F081A5B14046E1
:105A4000294600F0E9F820F0FF0148B94BF6901222
:105A5000C0F600022260D8F800206260C8F800702A
:105A6000C0B20843BDE8F0810021404600F0D4F800
:105A7000002820F0FF01F3D1E8E70000000000005B
:105A800010B540F61024C2F20044A04218BF10BD69
:105A9000D4E90010896988476168884202D00020F3
:105AA000206010BD204610BD70B547F2FF740D4652
:105AB000C0F60104A0B10646FAF77CFD072813D111
:105AC00047F2FF700722C0F601003146FAF791FD58
:105AD000B0FA80F0B5FA85F140094909084306E0BB
